:0400000097EF3EF048
:107D2400000E936E000E956E12001A6A196A186A94
:107D3400176A00015DEF3FF0016E100EE82EFED7CA
:107D440000D0012EFAD71200036E03C0C2FF01C097
:107D5400C1FF02C0C0FFC2801200036E000E816E1C
:107D640002500008640F9EEC3EF003C081FF0250F5
:107D74009EEC3EF01200056E0550D8A405D004C058
:107D840002F0010EAFEC3EF00504D8A405D004C007
:107D940002F0020EAFEC3EF0020E0518D8A4120059
:107DA40004C002F0000EAFEC3EF0120013D0C3503A
:107DB400C4CF05F0066A05C006F0056A0526000E64
:107DC400062205C007F006C008F0000E08BEFF0E2C
:107DD400096E0A6EC2B2EBD707C001F008C002F008
:107DE40009C003F00AC004F01200000E0A6E08AEC7
:107DF4000AD0081E071E061E056C000E0622072266
:107E04000822010E0A6E04AE0AD0041E031E021ECE
:107E1400016C000E022203220422010E0A1A000E33
:107E24000B6E000E0C6E000E0D6E000E0E6E0550E5
:107E3400061007100810D8B42AD0010E096E06D017
:107E4400D8900536063607360836092A08AEF8D71C
:107E5400D8900B360C360D360E360550015C0650A4
:107E640002580750035808500458D8A009D00550A8
:107E7400015E0650025A0750035A0850045A0B80F8
:107E8400D8900832073206320532092EE1D70A505B
:107E9400D8B408D00E1E0D1E0C1E0B6C000E0C2246
:107EA4000D220E220BC001F00CC002F00DC003F035
:107EB4000EC004F0120092EC3EF00D0E016E950E11
:107EC400026E040EA6EC3EF0000E836EC282D8EC65
:107ED4003EF001C013F002C014F003C015F004C05A
:107EE40016F016BE09D0165015104DE1F40E135CB1
:107EF400010E1458D8B047D013C001F014C002F0DA
:107F040015C003F016C004F0050E056E000E066ED3
:107F1400000E076E000E086EF7EC3EF001C017F07D
:107F240002C018F003C019F004C01AF01ABECCD76E
:107F34001A501910181004E1020E175CD8A0C4D707
:107F440017C00FF018C010F019C011F01AC012F0C9
:107F54000F1E101E111E121E0F2A000E10221122B7
:107F64001222640E0F24176E000E1020186E000EDD
:107F74001120196E000E12201A6E17C004F0010EA3
:107F8400BDEC3EF0A1D716BE33D01650151006E155
:107F94000D0E135C020E1458D8A02AD013C001F0A1
:107FA40014C002F015C003F016C004F00A0E056EEA
:107FB400000E066E000E076E000E086EF7EC3EF023
:107FC40001C017F002C018F003C019F004C01AF081
:107FD4001ABE08D01A501910181003E1640E175C69
:107FE400D8B072D717C004F0000EBDEC3EF06CD7C9
:0C7FF400050E046E020EBDEC3EF066D7D8
:020000040020DA
:08000000FFFFFFFFFFFFFFFF00
:020000040030CA
:0E000000030C1F1EFF8381FF0FC00FE00F4097
:00000001FF
